{
  "contractName": "MyTestContract",
  "abi": [
    {
      "constant": true,
      "inputs": [],
      "name": "name",
      "outputs": [
        {
          "name": "",
          "type": "string"
        }
      ],
      "payable": false,
      "stateMutability": "view",
      "type": "function",
      "signature": "0x06fdde03"
    },
    {
      "constant": true,
      "inputs": [],
      "name": "defaultProduct",
      "outputs": [
        {
          "name": "id",
          "type": "uint256"
        },
        {
          "name": "name",
          "type": "string"
        },
        {
          "name": "owner",
          "type": "address"
        }
      ],
      "payable": false,
      "stateMutability": "view",
      "type": "function",
      "signature": "0x9b9b92fb"
    },
    {
      "constant": true,
      "inputs": [],
      "name": "city",
      "outputs": [
        {
          "name": "",
          "type": "string"
        }
      ],
      "payable": false,
      "stateMutability": "view",
      "type": "function",
      "signature": "0xfd0160fe"
    },
    {
      "inputs": [],
      "payable": false,
      "stateMutability": "nonpayable",
      "type": "constructor",
      "signature": "constructor"
    },
    {
      "anonymous": false,
      "inputs": [
        {
          "indexed": false,
          "name": "id",
          "type": "uint256"
        },
        {
          "indexed": false,
          "name": "productName",
          "type": "string"
        },
        {
          "indexed": false,
          "name": "owner",
          "type": "address"
        }
      ],
      "name": "ProductLog",
      "type": "event",
      "signature": "0xdd7e3c866fa8ae1a4ae01412ea32743cbb0f53065e68f9beb13f0d1100c7672a"
    },
    {
      "constant": false,
      "inputs": [],
      "name": "createFirstProduct",
      "outputs": [],
      "payable": false,
      "stateMutability": "nonpayable",
      "type": "function",
      "signature": "0x2949528b"
    },
    {
      "constant": false,
      "inputs": [],
      "name": "CreateDefaultProduct",
      "outputs": [],
      "payable": false,
      "stateMutability": "nonpayable",
      "type": "function",
      "signature": "0xf0afdcef"
    },
    {
      "constant": false,
      "inputs": [],
      "name": "readName",
      "outputs": [],
      "payable": false,
      "stateMutability": "nonpayable",
      "type": "function",
      "signature": "0x39793ea9"
    },
    {
      "constant": false,
      "inputs": [
        {
          "name": "nameParam",
          "type": "string"
        }
      ],
      "name": "setNameValue",
      "outputs": [],
      "payable": false,
      "stateMutability": "nonpayable",
      "type": "function",
      "signature": "0x3637df8e"
    }
  ],
  "bytecode": "0x60806040526020604051908101604052806000815250600090805190602001906200002c929190620001d5565b506040805190810160405280600881526020017f506f72746c616e64000000000000000000000000000000000000000000000000815250600190805190602001906200007a929190620001d5565b503480156200008857600080fd5b506040805190810160405280600981526020017f46697273744e616d65000000000000000000000000000000000000000000000081525060009080519060200190620000d6929190620001d5565b50620000f0620000f6640100000000026401000000009004565b6200030b565b606060405190810160405280607b81526020016040805190810160405280600c81526020017f466972737450726f64756374000000000000000000000000000000000000000081525081526020013373ffffffffffffffffffffffffffffffffffffffff168152506002600082015181600001556020820151816001019080519060200190620001889291906200025c565b5060408201518160020160006101000a81548173ffffffffffffffffffffffffffffffffffffffff021916908373ffffffffffffffffffffffffffffffffffffffff160217905550905050565b828054600181600116156101000203166002900490600052602060002090601f016020900481019282601f106200021857805160ff191683800117855562000249565b8280016001018555821562000249579182015b82811115620002485782518255916020019190600101906200022b565b5b509050620002589190620002e3565b5090565b828054600181600116156101000203166002900490600052602060002090601f016020900481019282601f106200029f57805160ff1916838001178555620002d0565b82800160010185558215620002d0579182015b82811115620002cf578251825591602001919060010190620002b2565b5b509050620002df9190620002e3565b5090565b6200030891905b8082111562000304576000816000905550600101620002ea565b5090565b90565b6109e7806200031b6000396000f3fe608060405260043610610083576000357c0100000000000000000000000000000000000000000000000000000000900463ffffffff16806306fdde03146100885780632949528b146101185780633637df8e1461012f57806339793ea9146101f75780639b9b92fb1461020e578063f0afdcef146102d8578063fd0160fe146102ef575b600080fd5b34801561009457600080fd5b5061009d61037f565b6040518080602001828103825283818151815260200191508051906020019080838360005b838110156100dd5780820151818401526020810190506100c2565b50505050905090810190601f16801561010a5780820380516001836020036101000a031916815260200191505b509250505060405180910390f35b34801561012457600080fd5b5061012d61041d565b005b34801561013b57600080fd5b506101f56004803603602081101561015257600080fd5b810190808035906020019064010000000081111561016f57600080fd5b82018360208201111561018157600080fd5b803590602001918460018302840111640100000000831117156101a357600080fd5b91908080601f016020809104026020016040519081016040528093929190818152602001838380828437600081840152601f19601f8201169050808301925050505050505091929192905050506104fa565b005b34801561020357600080fd5b5061020c610514565b005b34801561021a57600080fd5b50610223610562565b60405180848152602001806020018373ffffffffffffffffffffffffffffffffffffffff1673ffffffffffffffffffffffffffffffffffffffff168152602001828103825284818151815260200191508051906020019080838360005b8381101561029b578082015181840152602081019050610280565b50505050905090810190601f1680156102c85780820380516001836020036101000a031916815260200191505b5094505050505060405180910390f35b3480156102e457600080fd5b506102ed610632565b005b3480156102fb57600080fd5b506103046107c0565b6040518080602001828103825283818151815260200191508051906020019080838360005b83811015610344578082015181840152602081019050610329565b50505050905090810190601f1680156103715780820380516001836020036101000a031916815260200191505b509250505060405180910390f35b60008054600181600116156101000203166002900480601f0160208091040260200160405190810160405280929190818152602001828054600181600116156101000203166002900480156104155780601f106103ea57610100808354040283529160200191610415565b820191906000526020600020905b8154815290600101906020018083116103f857829003601f168201915b505050505081565b606060405190810160405280607b81526020016040805190810160405280600c81526020017f466972737450726f64756374000000000000000000000000000000000000000081525081526020013373ffffffffffffffffffffffffffffffffffffffff1681525060026000820151816000015560208201518160010190805190602001906104ad92919061085e565b5060408201518160020160006101000a81548173ffffffffffffffffffffffffffffffffffffffff021916908373ffffffffffffffffffffffffffffffffffffffff160217905550905050565b80600090805190602001906105109291906108de565b5050565b6040805190810160405280600c81526020017f52656164696e67204e616d6500000000000000000000000000000000000000008152506000908051906020019061055f9291906108de565b50565b6002806000015490806001018054600181600116156101000203166002900480601f0160208091040260200160405190810160405280929190818152602001828054600181600116156101000203166002900480156106025780601f106105d757610100808354040283529160200191610602565b820191906000526020600020905b8154815290600101906020018083116105e557829003601f168201915b5050505050908060020160009054906101000a900473ffffffffffffffffffffffffffffffffffffffff16905083565b61063a61095e565b60606040519081016040528060ea81526020016040805190810160405280600e81526020017f64656661756c7450726f6475637400000000000000000000000000000000000081525081526020013373ffffffffffffffffffffffffffffffffffffffff1681525090508060026000820151816000015560208201518160010190805190602001906106cd92919061085e565b5060408201518160020160006101000a81548173ffffffffffffffffffffffffffffffffffffffff021916908373ffffffffffffffffffffffffffffffffffffffff1602179055509050507fdd7e3c866fa8ae1a4ae01412ea32743cbb0f53065e68f9beb13f0d1100c7672a60ea3360405180838152602001806020018373ffffffffffffffffffffffffffffffffffffffff1673ffffffffffffffffffffffffffffffffffffffff1681526020018281038252600e8152602001807f64656661756c7450726f64756374000000000000000000000000000000000000815250602001935050505060405180910390a150565b60018054600181600116156101000203166002900480601f0160208091040260200160405190810160405280929190818152602001828054600181600116156101000203166002900480156108565780601f1061082b57610100808354040283529160200191610856565b820191906000526020600020905b81548152906001019060200180831161083957829003601f168201915b505050505081565b828054600181600116156101000203166002900490600052602060002090601f016020900481019282601f1061089f57805160ff19168380011785556108cd565b828001600101855582156108cd579182015b828111156108cc5782518255916020019190600101906108b1565b5b5090506108da9190610996565b5090565b828054600181600116156101000203166002900490600052602060002090601f016020900481019282601f1061091f57805160ff191683800117855561094d565b8280016001018555821561094d579182015b8281111561094c578251825591602001919060010190610931565b5b50905061095a9190610996565b5090565b6060604051908101604052806000815260200160608152602001600073ffffffffffffffffffffffffffffffffffffffff1681525090565b6109b891905b808211156109b457600081600090555060010161099c565b5090565b9056fea165627a7a72305820471f8eeed52815d9fe53bec3e45e3e33708a41eda08f787abde7ab17b231f5b50029",
  "source": "pragma solidity ^0.5.0;\r\n\r\ncontract MyTestContract {\r\n\r\n    string public name = \"\";\r\n    string public city = \"Portland\";\r\n    TestProduct public defaultProduct;\r\n\r\n    constructor() public {\r\n        name = \"FirstName\";\r\n        createFirstProduct();\r\n    }\r\n\r\n    struct TestProduct {\r\n        uint id;\r\n        string name;\r\n        address payable owner;\r\n    }\r\n\r\n    event ProductLog(\r\n        uint id,\r\n        string productName,\r\n        address payable owner\r\n    );\r\n\r\n    function createFirstProduct() public {\r\n        defaultProduct = TestProduct(123, \"FirstProduct\", msg.sender);\r\n    }\r\n\r\n    function CreateDefaultProduct() public {\r\n        TestProduct memory testProduct = TestProduct(234, \"defaultProduct\", msg.sender);\r\n        defaultProduct = testProduct;\r\n        emit ProductLog(234, \"defaultProduct\", msg.sender);\r\n    }\r\n\r\n    function readName() public {\r\n        //console.log();\r\n        name = \"Reading Name\";\r\n    }\r\n\r\n    function setNameValue(string memory nameParam) public {\r\n        name = nameParam;\r\n    }\r\n\r\n\r\n}",
  "sourcePath": "E:/dapps/marketplace/src/contracts/MyTestContract.sol",
  "compiler": {
    "name": "solc",
    "version": "0.5.0+commit.1d4f565a.Emscripten.clang"
  },
  "schemaVersion": "3.0.2",
  "updatedAt": "2021-12-04T20:48:16.985Z",
  "devdoc": {
    "methods": {}
  },
  "userdoc": {
    "methods": {}
  }
}