{
  "contractName": "TestContract",
  "abi": [
    {
      "constant": true,
      "inputs": [],
      "name": "name",
      "outputs": [
        {
          "name": "",
          "type": "string"
        }
      ],
      "payable": false,
      "stateMutability": "view",
      "type": "function",
      "signature": "0x06fdde03"
    },
    {
      "constant": true,
      "inputs": [],
      "name": "defaultProduct",
      "outputs": [
        {
          "name": "id",
          "type": "uint256"
        },
        {
          "name": "name",
          "type": "string"
        }
      ],
      "payable": false,
      "stateMutability": "view",
      "type": "function",
      "signature": "0x9b9b92fb"
    },
    {
      "constant": true,
      "inputs": [],
      "name": "id",
      "outputs": [
        {
          "name": "",
          "type": "uint256"
        }
      ],
      "payable": false,
      "stateMutability": "view",
      "type": "function",
      "signature": "0xaf640d0f"
    },
    {
      "inputs": [],
      "payable": false,
      "stateMutability": "nonpayable",
      "type": "constructor",
      "signature": "constructor"
    },
    {
      "anonymous": false,
      "inputs": [
        {
          "indexed": false,
          "name": "id",
          "type": "uint256"
        },
        {
          "indexed": false,
          "name": "name",
          "type": "string"
        }
      ],
      "name": "ProductCreate",
      "type": "event",
      "signature": "0x47d2bdf8c51c89da74bbca8c702f1eda2a160a778118cdd5dfce7b6a19e29afc"
    },
    {
      "constant": false,
      "inputs": [],
      "name": "testCreate",
      "outputs": [],
      "payable": false,
      "stateMutability": "nonpayable",
      "type": "function",
      "signature": "0xd62d3115"
    }
  ],
  "bytecode": "0x608060405234801561001057600080fd5b506040805190810160405280600581526020017f66697273740000000000000000000000000000000000000000000000000000008152506000908051906020019061005c92919061006a565b50607b60018190555061010f565b828054600181600116156101000203166002900490600052602060002090601f016020900481019282601f106100ab57805160ff19168380011785556100d9565b828001600101855582156100d9579182015b828111156100d85782518255916020019190600101906100bd565b5b5090506100e691906100ea565b5090565b61010c91905b808211156101085760008160009055506001016100f0565b5090565b90565b6104688061011e6000396000f3fe608060405260043610610062576000357c0100000000000000000000000000000000000000000000000000000000900463ffffffff16806306fdde03146100675780639b9b92fb146100f7578063af640d0f1461018e578063d62d3115146101b9575b600080fd5b34801561007357600080fd5b5061007c6101d0565b6040518080602001828103825283818151815260200191508051906020019080838360005b838110156100bc5780820151818401526020810190506100a1565b50505050905090810190601f1680156100e95780820380516001836020036101000a031916815260200191505b509250505060405180910390f35b34801561010357600080fd5b5061010c61026e565b6040518083815260200180602001828103825283818151815260200191508051906020019080838360005b83811015610152578082015181840152602081019050610137565b50505050905090810190601f16801561017f5780820380516001836020036101000a031916815260200191505b50935050505060405180910390f35b34801561019a57600080fd5b506101a3610318565b6040518082815260200191505060405180910390f35b3480156101c557600080fd5b506101ce61031e565b005b60008054600181600116156101000203166002900480601f0160208091040260200160405190810160405280929190818152602001828054600181600116156101000203166002900480156102665780601f1061023b57610100808354040283529160200191610266565b820191906000526020600020905b81548152906001019060200180831161024957829003601f168201915b505050505081565b6002806000015490806001018054600181600116156101000203166002900480601f01602080910402602001604051908101604052809291908181526020018280546001816001161561010002031660029004801561030e5780601f106102e35761010080835404028352916020019161030e565b820191906000526020600020905b8154815290600101906020018083116102f157829003601f168201915b5050505050905082565b60015481565b604080519081016040528060ea81526020016040805190810160405280600681526020017f7365636f6e6400000000000000000000000000000000000000000000000000008152508152506002600082015181600001556020820151816001019080519060200190610391929190610397565b50905050565b828054600181600116156101000203166002900490600052602060002090601f016020900481019282601f106103d857805160ff1916838001178555610406565b82800160010185558215610406579182015b828111156104055782518255916020019190600101906103ea565b5b5090506104139190610417565b5090565b61043991905b8082111561043557600081600090555060010161041d565b5090565b9056fea165627a7a7230582014fe71e99607daa8ab55289e36f345ebb1d3eef05339b61641b94db643e1140d0029",
  "source": "pragma solidity ^0.5.0;\r\n\r\ncontract TestContract {\r\n\r\n    string public name;\r\n    uint public id;\r\n    Product public defaultProduct;\r\n\r\n    constructor() public\r\n    {\r\n        name = \"first\";\r\n        id = 123;\r\n    }\r\n\r\n    struct Product{\r\n        uint id;\r\n        string name;\r\n    }\r\n\r\n    event ProductCreate(\r\n        uint id,\r\n        string name\r\n    );\r\n\r\n    function testCreate() public {\r\n        defaultProduct = Product(234, \"second\");\r\n    }\r\n\r\n\r\n\r\n}",
  "sourcePath": "E:/dapps/marketplace/src/contracts/TestContract.sol",
  "compiler": {
    "name": "solc",
    "version": "0.5.0+commit.1d4f565a.Emscripten.clang"
  },
  "schemaVersion": "3.0.2",
  "updatedAt": "2021-12-04T20:48:16.981Z",
  "devdoc": {
    "methods": {}
  },
  "userdoc": {
    "methods": {}
  }
}